{
  "_format": "hh-sol-artifact-1",
  "contractName": "ContractReader",
  "sourceName": "contracts/core/utils/ContractReader.sol",
  "abi": [
    {
      "inputs": [],
      "stateMutability": "nonpayable",
      "type": "constructor"
    },
    {
      "anonymous": false,
      "inputs": [
        {
          "indexed": false,
          "internalType": "uint8",
          "name": "version",
          "type": "uint8"
        }
      ],
      "name": "Initialized",
      "type": "event"
    },
    {
      "inputs": [],
      "name": "getALPTotalSupply",
      "outputs": [
        {
          "internalType": "uint256",
          "name": "_totalSupply",
          "type": "uint256"
        }
      ],
      "stateMutability": "view",
      "type": "function"
    },
    {
      "inputs": [],
      "name": "getAlpPrice",
      "outputs": [
        {
          "internalType": "uint256",
          "name": "_price",
          "type": "uint256"
        }
      ],
      "stateMutability": "view",
      "type": "function"
    },
    {
      "inputs": [],
      "name": "getExposuresPerALP",
      "outputs": [
        {
          "internalType": "int256[]",
          "name": "exposures",
          "type": "int256[]"
        }
      ],
      "stateMutability": "view",
      "type": "function"
    },
    {
      "inputs": [
        {
          "internalType": "uint32",
          "name": "marketId",
          "type": "uint32"
        },
        {
          "internalType": "uint256",
          "name": "marketOrderSeq",
          "type": "uint256"
        }
      ],
      "name": "getFuturesMarketOrder",
      "outputs": [
        {
          "internalType": "address",
          "name": "user",
          "type": "address"
        },
        {
          "internalType": "uint256",
          "name": "orderId",
          "type": "uint256"
        },
        {
          "internalType": "uint256",
          "name": "qty",
          "type": "uint256"
        },
        {
          "internalType": "uint256",
          "name": "price",
          "type": "uint256"
        },
        {
          "internalType": "uint256",
          "name": "slippageThreshold",
          "type": "uint256"
        },
        {
          "internalType": "uint32",
          "name": "_marketId",
          "type": "uint32"
        },
        {
          "internalType": "bool",
          "name": "isLong",
          "type": "bool"
        },
        {
          "internalType": "bool",
          "name": "isLimitOrder",
          "type": "bool"
        }
      ],
      "stateMutability": "view",
      "type": "function"
    },
    {
      "inputs": [
        {
          "internalType": "uint32",
          "name": "marketId",
          "type": "uint32"
        },
        {
          "internalType": "int256",
          "name": "qty",
          "type": "int256"
        }
      ],
      "name": "getMarkPriceAndInstantClosePrice",
      "outputs": [
        {
          "internalType": "uint256",
          "name": "marketPrice",
          "type": "uint256"
        },
        {
          "internalType": "uint256",
          "name": "instantClosePrice",
          "type": "uint256"
        }
      ],
      "stateMutability": "view",
      "type": "function"
    },
    {
      "inputs": [
        {
          "internalType": "uint32",
          "name": "marketId",
          "type": "uint32"
        },
        {
          "internalType": "int256",
          "name": "qty",
          "type": "int256"
        },
        {
          "internalType": "uint256",
          "name": "indexPrice",
          "type": "uint256"
        }
      ],
      "name": "getMarkPriceAndInstantClosePriceWithIndexPrice",
      "outputs": [
        {
          "internalType": "uint256",
          "name": "marketPrice",
          "type": "uint256"
        },
        {
          "internalType": "uint256",
          "name": "instantClosePrice",
          "type": "uint256"
        }
      ],
      "stateMutability": "view",
      "type": "function"
    },
    {
      "inputs": [
        {
          "internalType": "uint32",
          "name": "marketId",
          "type": "uint32"
        }
      ],
      "name": "getMarket",
      "outputs": [
        {
          "components": [
            {
              "internalType": "int256",
              "name": "accFundingFactor",
              "type": "int256"
            },
            {
              "internalType": "int256",
              "name": "fundingRate",
              "type": "int256"
            },
            {
              "internalType": "int256",
              "name": "skewness",
              "type": "int256"
            },
            {
              "internalType": "uint256",
              "name": "lastFundingRateUpdateTimestamp",
              "type": "uint256"
            },
            {
              "internalType": "uint256",
              "name": "depthFactor",
              "type": "uint256"
            },
            {
              "internalType": "uint256",
              "name": "skewnessSoftCap",
              "type": "uint256"
            },
            {
              "internalType": "uint256",
              "name": "skewnessHardCap",
              "type": "uint256"
            },
            {
              "internalType": "enum DataTypes.MarketStatus",
              "name": "status",
              "type": "uint8"
            },
            {
              "internalType": "uint32",
              "name": "imr",
              "type": "uint32"
            },
            {
              "internalType": "uint32",
              "name": "mmr",
              "type": "uint32"
            }
          ],
          "internalType": "struct ContractReader.Market",
          "name": "market",
          "type": "tuple"
        }
      ],
      "stateMutability": "view",
      "type": "function"
    },
    {
      "inputs": [],
      "name": "getMarkets",
      "outputs": [
        {
          "components": [
            {
              "internalType": "int256",
              "name": "accFundingFactor",
              "type": "int256"
            },
            {
              "internalType": "int256",
              "name": "fundingRate",
              "type": "int256"
            },
            {
              "internalType": "int256",
              "name": "skewness",
              "type": "int256"
            },
            {
              "internalType": "uint256",
              "name": "lastFundingRateUpdateTimestamp",
              "type": "uint256"
            },
            {
              "internalType": "uint256",
              "name": "depthFactor",
              "type": "uint256"
            },
            {
              "internalType": "uint256",
              "name": "skewnessSoftCap",
              "type": "uint256"
            },
            {
              "internalType": "uint256",
              "name": "skewnessHardCap",
              "type": "uint256"
            },
            {
              "internalType": "enum DataTypes.MarketStatus",
              "name": "status",
              "type": "uint8"
            },
            {
              "internalType": "uint32",
              "name": "imr",
              "type": "uint32"
            },
            {
              "internalType": "uint32",
              "name": "mmr",
              "type": "uint32"
            }
          ],
          "internalType": "struct ContractReader.Market[]",
          "name": "markets",
          "type": "tuple[]"
        }
      ],
      "stateMutability": "view",
      "type": "function"
    },
    {
      "inputs": [
        {
          "internalType": "uint32[]",
          "name": "marketIds",
          "type": "uint32[]"
        }
      ],
      "name": "getMarketsExistingPendingOrders",
      "outputs": [
        {
          "internalType": "bool[]",
          "name": "",
          "type": "bool[]"
        }
      ],
      "stateMutability": "view",
      "type": "function"
    },
    {
      "inputs": [
        {
          "internalType": "uint256",
          "name": "assetId",
          "type": "uint256"
        }
      ],
      "name": "getPriceFeed",
      "outputs": [
        {
          "internalType": "uint256",
          "name": "",
          "type": "uint256"
        }
      ],
      "stateMutability": "view",
      "type": "function"
    },
    {
      "inputs": [
        {
          "internalType": "uint256[]",
          "name": "assetIds",
          "type": "uint256[]"
        }
      ],
      "name": "getPriceFeeds",
      "outputs": [
        {
          "internalType": "uint256[]",
          "name": "",
          "type": "uint256[]"
        }
      ],
      "stateMutability": "view",
      "type": "function"
    },
    {
      "inputs": [
        {
          "internalType": "address",
          "name": "user",
          "type": "address"
        }
      ],
      "name": "getUserALPSize",
      "outputs": [
        {
          "internalType": "uint256",
          "name": "_size",
          "type": "uint256"
        }
      ],
      "stateMutability": "view",
      "type": "function"
    },
    {
      "inputs": [
        {
          "internalType": "address",
          "name": "user",
          "type": "address"
        }
      ],
      "name": "getUserFuturesStatus",
      "outputs": [
        {
          "components": [
            {
              "components": [
                {
                  "internalType": "int256",
                  "name": "qty",
                  "type": "int256"
                },
                {
                  "internalType": "int256",
                  "name": "lastAccFundingFactor",
                  "type": "int256"
                },
                {
                  "internalType": "uint256",
                  "name": "entryPrice",
                  "type": "uint256"
                }
              ],
              "internalType": "struct ContractReader.FuturesPosition[]",
              "name": "positions",
              "type": "tuple[]"
            },
            {
              "components": [
                {
                  "internalType": "address",
                  "name": "tokenAddress",
                  "type": "address"
                },
                {
                  "internalType": "uint256",
                  "name": "qty",
                  "type": "uint256"
                },
                {
                  "internalType": "uint256",
                  "name": "withdrawable",
                  "type": "uint256"
                },
                {
                  "internalType": "uint256",
                  "name": "initialWeight",
                  "type": "uint256"
                },
                {
                  "internalType": "uint256",
                  "name": "totalWeight",
                  "type": "uint256"
                }
              ],
              "internalType": "struct ContractReader.Collateral[]",
              "name": "collaterals",
              "type": "tuple[]"
            },
            {
              "internalType": "int256",
              "name": "usdBalance",
              "type": "int256"
            },
            {
              "internalType": "uint256",
              "name": "withdrawableUsd",
              "type": "uint256"
            },
            {
              "internalType": "int256",
              "name": "initialWeightedBalance",
              "type": "int256"
            },
            {
              "internalType": "int256",
              "name": "totalWeightedBalance",
              "type": "int256"
            },
            {
              "internalType": "int256",
              "name": "nonWeightedBalance",
              "type": "int256"
            },
            {
              "internalType": "int256",
              "name": "pendingFundingFee",
              "type": "int256"
            },
            {
              "internalType": "uint256",
              "name": "initialMargin",
              "type": "uint256"
            },
            {
              "internalType": "uint256",
              "name": "maintenanceMargin",
              "type": "uint256"
            },
            {
              "internalType": "uint256",
              "name": "blockNumber",
              "type": "uint256"
            },
            {
              "internalType": "uint32",
              "name": "feeDiscountRate",
              "type": "uint32"
            },
            {
              "internalType": "uint32",
              "name": "maxLeverage",
              "type": "uint32"
            }
          ],
          "internalType": "struct ContractReader.UserFuturesStatus",
          "name": "status",
          "type": "tuple"
        }
      ],
      "stateMutability": "view",
      "type": "function"
    },
    {
      "inputs": [
        {
          "internalType": "address",
          "name": "user",
          "type": "address"
        },
        {
          "internalType": "uint256[]",
          "name": "prices",
          "type": "uint256[]"
        }
      ],
      "name": "getUserFuturesStatusWithPrice",
      "outputs": [
        {
          "components": [
            {
              "components": [
                {
                  "internalType": "int256",
                  "name": "qty",
                  "type": "int256"
                },
                {
                  "internalType": "int256",
                  "name": "lastAccFundingFactor",
                  "type": "int256"
                },
                {
                  "internalType": "uint256",
                  "name": "entryPrice",
                  "type": "uint256"
                }
              ],
              "internalType": "struct ContractReader.FuturesPosition[]",
              "name": "positions",
              "type": "tuple[]"
            },
            {
              "components": [
                {
                  "internalType": "address",
                  "name": "tokenAddress",
                  "type": "address"
                },
                {
                  "internalType": "uint256",
                  "name": "qty",
                  "type": "uint256"
                },
                {
                  "internalType": "uint256",
                  "name": "withdrawable",
                  "type": "uint256"
                },
                {
                  "internalType": "uint256",
                  "name": "initialWeight",
                  "type": "uint256"
                },
                {
                  "internalType": "uint256",
                  "name": "totalWeight",
                  "type": "uint256"
                }
              ],
              "internalType": "struct ContractReader.Collateral[]",
              "name": "collaterals",
              "type": "tuple[]"
            },
            {
              "internalType": "int256",
              "name": "usdBalance",
              "type": "int256"
            },
            {
              "internalType": "uint256",
              "name": "withdrawableUsd",
              "type": "uint256"
            },
            {
              "internalType": "int256",
              "name": "initialWeightedBalance",
              "type": "int256"
            },
            {
              "internalType": "int256",
              "name": "totalWeightedBalance",
              "type": "int256"
            },
            {
              "internalType": "int256",
              "name": "nonWeightedBalance",
              "type": "int256"
            },
            {
              "internalType": "int256",
              "name": "pendingFundingFee",
              "type": "int256"
            },
            {
              "internalType": "uint256",
              "name": "initialMargin",
              "type": "uint256"
            },
            {
              "internalType": "uint256",
              "name": "maintenanceMargin",
              "type": "uint256"
            },
            {
              "internalType": "uint256",
              "name": "blockNumber",
              "type": "uint256"
            },
            {
              "internalType": "uint32",
              "name": "feeDiscountRate",
              "type": "uint32"
            },
            {
              "internalType": "uint32",
              "name": "maxLeverage",
              "type": "uint32"
            }
          ],
          "internalType": "struct ContractReader.UserFuturesStatus",
          "name": "status",
          "type": "tuple"
        }
      ],
      "stateMutability": "view",
      "type": "function"
    },
    {
      "inputs": [
        {
          "internalType": "address",
          "name": "user",
          "type": "address"
        }
      ],
      "name": "getUserLpStatus",
      "outputs": [
        {
          "components": [
            {
              "components": [
                {
                  "internalType": "uint256",
                  "name": "qty",
                  "type": "uint256"
                },
                {
                  "internalType": "uint256",
                  "name": "entryPrice",
                  "type": "uint256"
                }
              ],
              "internalType": "struct ContractReader.LpPosition",
              "name": "position",
              "type": "tuple"
            },
            {
              "components": [
                {
                  "internalType": "address",
                  "name": "tokenAddress",
                  "type": "address"
                },
                {
                  "internalType": "uint256",
                  "name": "qty",
                  "type": "uint256"
                },
                {
                  "internalType": "uint256",
                  "name": "withdrawable",
                  "type": "uint256"
                },
                {
                  "internalType": "uint256",
                  "name": "initialWeight",
                  "type": "uint256"
                },
                {
                  "internalType": "uint256",
                  "name": "totalWeight",
                  "type": "uint256"
                }
              ],
              "internalType": "struct ContractReader.Collateral[]",
              "name": "collaterals",
              "type": "tuple[]"
            },
            {
              "internalType": "int256",
              "name": "usdBalance",
              "type": "int256"
            },
            {
              "internalType": "uint256",
              "name": "withdrawableUsd",
              "type": "uint256"
            },
            {
              "internalType": "int256",
              "name": "initialWeightedBalance",
              "type": "int256"
            },
            {
              "internalType": "int256",
              "name": "totalWeightedBalance",
              "type": "int256"
            },
            {
              "internalType": "int256",
              "name": "nonWeightedBalance",
              "type": "int256"
            },
            {
              "internalType": "uint256",
              "name": "initialMargin",
              "type": "uint256"
            },
            {
              "internalType": "uint256",
              "name": "maintenanceMargin",
              "type": "uint256"
            },
            {
              "internalType": "uint256",
              "name": "blockNumber",
              "type": "uint256"
            },
            {
              "internalType": "uint32",
              "name": "feeRate",
              "type": "uint32"
            },
            {
              "internalType": "uint32",
              "name": "maxLeverage",
              "type": "uint32"
            }
          ],
          "internalType": "struct ContractReader.UserLpStatus",
          "name": "status",
          "type": "tuple"
        }
      ],
      "stateMutability": "view",
      "type": "function"
    },
    {
      "inputs": [
        {
          "internalType": "address",
          "name": "observer_",
          "type": "address"
        }
      ],
      "name": "initialize",
      "outputs": [],
      "stateMutability": "nonpayable",
      "type": "function"
    },
    {
      "inputs": [],
      "name": "observer",
      "outputs": [
        {
          "internalType": "address",
          "name": "",
          "type": "address"
        }
      ],
      "stateMutability": "view",
      "type": "function"
    }
  ],
  "bytecode": "0x608060405234801561001057600080fd5b50614a5d806100206000396000f3fe608060405234801561001057600080fd5b50600436106100eb5760003560e01c8063c4d66de811610092578063c4d66de8146101c1578063dd3be835146101d6578063de2c6d41146101e9578063e083e316146101fe578063e351f57b14610260578063eb70e49814610273578063ec2c901614610299578063f91d443f146102ae578063f9940bcd146102c157600080fd5b8063045ae6e4146100f0578063095c8aa51461010b5780633b292a181461013357806380314521146101465780638a587a7b146101665780638b9d82d414610179578063a30e397a14610181578063c2c79dec146101a1575b600080fd5b6100f86102e1565b6040519081526020015b60405180910390f35b61011e610119366004613f61565b610363565b60408051928352602083019190915201610102565b6100f8610141366004613fab565b61044e565b610159610154366004614013565b6104dc565b604051610102919061411b565b610159610174366004613fab565b611436565b6100f8612314565b61019461018f3660046141fc565b61236d565b604051610102919061423d565b6101b46101af366004614283565b6124ee565b6040516101029190614340565b6101d46101cf366004613fab565b61264b565b005b61011e6101e436600461434f565b61279f565b6101f16128c3565b604051610102919061437b565b61021161020c36600461434f565b612b18565b604080516001600160a01b0390991689526020890197909752958701949094526060860192909252608085015263ffffffff1660a0840152151560c0830152151560e082015261010001610102565b6101f161026e3660046141fc565b612c25565b60005461028c906201000090046001600160a01b031681565b60405161010291906143b3565b6102a1612cfc565b60405161010291906143c7565b6100f86102bc36600461440a565b612e34565b6102d46102cf366004613fab565b612e56565b6040516101029190614423565b600080546102fd906201000090046001600160a01b0316613a3c565b6001600160a01b03166378d9a46e6040518163ffffffff1660e01b8152600401602060405180830381865afa15801561033a573d6000803e3d6000fd5b505050506040513d601f19601f8201168201806040525081019061035e91906144ea565b905090565b60008061037c6040518060200160405280600081525090565b600054610397906201000090046001600160a01b0316613aa0565b60405163ece91e3560e01b815263ffffffff881660048201526001600160a01b03919091169063ece91e3590602401608060405180830381865afa1580156103e3573d6000803e3d6000fd5b505050506040513d601f19601f820116820180604052508101906104079190614568565b50925060009150610419905082613ae0565b9050600061042683613b13565b9050610433868383613b37565b945061044187878484613b72565b9350505050935093915050565b6000805461046a906201000090046001600160a01b0316613a3c565b6001600160a01b03166355f57510836040518263ffffffff1660e01b815260040161049591906143b3565b602060405180830381865afa1580156104b2573d6000803e3d6000fd5b505050506040513d601f19601f820116820180604052508101906104d691906144ea565b92915050565b6104e4613e3c565b43610140820152600054610506906201000090046001600160a01b0316613aa0565b6001600160a01b03166395adc2f26040518163ffffffff1660e01b8152600401602060405180830381865afa158015610543573d6000803e3d6000fd5b505050506040513d601f19601f8201168201806040525081019061056791906145b0565b63ffffffff166001600160401b0381111561058457610584614503565b6040519080825280602002602001820160405280156105d957816020015b6105c660405180606001604052806000815260200160008152602001600081525090565b8152602001906001900390816105a25790505b5081526000546105f7906201000090046001600160a01b0316613aa0565b6001600160a01b0316630468674b6040518163ffffffff1660e01b8152600401602060405180830381865afa158015610634573d6000803e3d6000fd5b505050506040513d601f19601f8201168201806040525081019061065891906145b0565b63ffffffff166001600160401b0381111561067557610675614503565b6040519080825280602002602001820160405280156106ae57816020015b61069b613eb0565b8152602001906001900390816106935790505b50602082015260006106be612cfc565b60008054919250906106de906201000090046001600160a01b0316613aa0565b6001600160a01b0316635e5c06e2876040518263ffffffff1660e01b815260040161070991906143b3565b6040805180830381865afa158015610725573d6000803e3d6000fd5b505050506040513d601f19601f8201168201806040525081019061074991906145cd565b50600054909150610768906201000090046001600160a01b0316613bc3565b6001600160a01b031663265f003b8760016040518363ffffffff1660e01b81526004016107969291906145fa565b6040805180830381865afa1580156107b2573d6000803e3d6000fd5b505050506040513d601f19601f820116820180604052508101906107d69190614627565b63ffffffff908116610180860181905291166101608501526000906107fe90620f424061468d565b6040850183905290506000805b85515163ffffffff82161015610d2957600054610836906201000090046001600160a01b0316613aa0565b6001600160a01b031663160d8b288a836040518363ffffffff1660e01b81526004016108639291906146b0565b6040805180830381865afa15801561087f573d6000803e3d6000fd5b505050506040513d601f19601f820116820180604052508101906108a391906146cf565b8751805163ffffffff85169081106108bd576108bd6146f3565b602002602001015160000188600001518463ffffffff16815181106108e4576108e46146f3565b6020908102919091018101510191909152528551805163ffffffff8316908110610910576109106146f3565b602002602001015160000151600014610d175760005461093e906201000090046001600160a01b0316613aa0565b6001600160a01b0316638a7d6ac68a836040518363ffffffff1660e01b815260040161096b9291906146b0565b602060405180830381865afa158015610988573d6000803e3d6000fd5b505050506040513d601f19601f820116820180604052508101906109ac91906144ea565b8651805163ffffffff84169081106109c6576109c66146f3565b60200260200101516040018181525050600080610a298389600001518563ffffffff16815181106109f9576109f96146f3565b6020026020010151600001518c8c8763ffffffff16818110610a1d57610a1d6146f3565b90506020020135610363565b9150915060008289600001518563ffffffff1681518110610a4c57610a4c6146f3565b602002602001015160000151610a629190614709565b90508189600001518563ffffffff1681518110610a8157610a816146f3565b602002602001015160000151610a979190614709565b89604001818151610aa89190614739565b90525060008113610b1257612710610af0898663ffffffff1681518110610ad157610ad16146f3565b6020026020010151610100015163ffffffff168863ffffffff16613c03565b610af983614761565b610b03919061477d565b610b0d9190614794565b610b44565b612710610b30898663ffffffff1681518110610ad157610ad16146f3565b610b3a908361477d565b610b449190614794565b8961010001818151610b5691906147a8565b90525060008113610bb257612710888563ffffffff1681518110610b7c57610b7c6146f3565b6020026020010151610120015163ffffffff1682610b9990614761565b610ba3919061477d565b610bad9190614794565b610bf5565b612710888563ffffffff1681518110610bcd57610bcd6146f3565b6020026020010151610120015163ffffffff1682610beb919061477d565b610bf59190614794565b8961012001818151610c0791906147a8565b905250885180516402540be400919063ffffffff8716908110610c2c57610c2c6146f3565b602002602001015160200151898663ffffffff1681518110610c5057610c506146f3565b60200260200101516060015142610c6791906147bb565b8a8763ffffffff1681518110610c7f57610c7f6146f3565b602002602001015160200151610c959190614709565b8a8763ffffffff1681518110610cad57610cad6146f3565b602002602001015160000151610cc39190614739565b610ccd91906147ce565b8a51805163ffffffff8816908110610ce757610ce76146f3565b602002602001015160000151610cfd9190614709565b610d0791906147f5565b610d119086614739565b94505050505b80610d2181614823565b91505061080b565b5060e08501819052604085018051829190610d459083906147ce565b905250600090508060015b8660200151518163ffffffff16101561112857600080548190610d81906201000090046001600160a01b0316613aa0565b6040516318c261fd60e11b815263ffffffff851660048201526001600160a01b039190911690633184c3fa906024016040805180830381865afa158015610dcc573d6000803e3d6000fd5b505050506040513d601f19601f82011682018060405250810190610df09190614846565b90925090506001600160a01b038216610e0a575050611116565b805160081c613fff1689602001518463ffffffff1681518110610e2f57610e2f6146f3565b602090810291909101015160600152805160161c613fff1689602001518463ffffffff1681518110610e6357610e636146f3565b60209081029190910101516080015260008054610e8e906201000090046001600160a01b0316613aa0565b6001600160a01b031663e51e119e8e856040518363ffffffff1660e01b8152600401610ebb929190614873565b602060405180830381865afa158015610ed8573d6000803e3d6000fd5b505050506040513d601f19601f82011682018060405250810190610efc91906144ea565b825190915060321c601f16610f1290600a614971565b610f1e9061271061477d565b8a602001518563ffffffff1681518110610f3a57610f3a6146f3565b6020026020010151606001518d8d8763ffffffff16818110610f5e57610f5e6146f3565b9050602002013583610f70919061477d565b610f7a919061477d565b610f89906402540be40061477d565b610f939190614794565b610f9d90876147a8565b825190965060321c601f16610fb390600a614971565b610fbf9061271061477d565b8a602001518563ffffffff1681518110610fdb57610fdb6146f3565b6020026020010151608001518d8d8763ffffffff16818110610fff57610fff6146f3565b9050602002013583611011919061477d565b61101b919061477d565b61102a906402540be40061477d565b6110349190614794565b61103e90866147a8565b825190955060321c601f1661105490600a614971565b8c8c8663ffffffff1681811061106c5761106c6146f3565b905060200201356402540be400611083919061477d565b61108d9190614794565b8a60c00181815161109e9190614739565b90525060208a0151805184919063ffffffff87169081106110c1576110c16146f3565b6020026020010151600001906001600160a01b031690816001600160a01b031681525050808a602001518563ffffffff1681518110611102576111026146f3565b602002602001015160200181815250505050505b8061112081614823565b915050610d50565b508186604001516111399190614739565b6080870152604086015161114e908290614739565b60a0870152604086015160c087018051611169908390614739565b90525060015b8660200151518163ffffffff1610156113cb57866101000151876080015112156111c657600087602001518263ffffffff16815181106111b1576111b16146f3565b602002602001015160400181815250506113b9565b6000805481906111e4906201000090046001600160a01b0316613aa0565b6040516318c261fd60e11b815263ffffffff851660048201526001600160a01b039190911690633184c3fa906024016040805180830381865afa15801561122f573d6000803e3d6000fd5b505050506040513d601f19601f820116820180604052508101906112539190614846565b90925090506001600160a01b03821661126d5750506113b9565b6000670de0b6b3a76400006127108b602001518663ffffffff1681518110611297576112976146f3565b6020026020010151606001518e8e8863ffffffff168181106112bb576112bb6146f3565b905060200201356112cc919061477d565b6112d69190614794565b835160321c601f166112e990600a614971565b8c61010001518d608001516112fe91906147bb565b611308919061477d565b611316906305f5e10061477d565b6113209190614794565b61132a9190614794565b905089602001518463ffffffff1681518110611348576113486146f3565b60200260200101516020015181116113605780611389565b89602001518463ffffffff168151811061137c5761137c6146f3565b6020026020010151602001515b8a602001518563ffffffff16815181106113a5576113a56146f3565b602002602001015160400181815250505050505b806113c381614823565b91505061116f565b50600082876101000151116113e15760006113f2565b828761010001516113f291906147bb565b9050600081886040015161140691906147ce565b126114205780876040015161141b91906147bb565b611423565b60005b6060880152509498975050505050505050565b61143e613e3c565b43610140820152600054611460906201000090046001600160a01b0316613aa0565b6001600160a01b03166395adc2f26040518163ffffffff1660e01b8152600401602060405180830381865afa15801561149d573d6000803e3d6000fd5b505050506040513d601f19601f820116820180604052508101906114c191906145b0565b63ffffffff166001600160401b038111156114de576114de614503565b60405190808252806020026020018201604052801561153357816020015b61152060405180606001604052806000815260200160008152602001600081525090565b8152602001906001900390816114fc5790505b508152600054611551906201000090046001600160a01b0316613aa0565b6001600160a01b0316630468674b6040518163ffffffff1660e01b8152600401602060405180830381865afa15801561158e573d6000803e3d6000fd5b505050506040513d601f19601f820116820180604052508101906115b291906145b0565b63ffffffff166001600160401b038111156115cf576115cf614503565b60405190808252806020026020018201604052801561160857816020015b6115f5613eb0565b8152602001906001900390816115ed5790505b5060208201526000611618612cfc565b6000805491925090611638906201000090046001600160a01b0316613aa0565b6001600160a01b0316635e5c06e2856040518263ffffffff1660e01b815260040161166391906143b3565b6040805180830381865afa15801561167f573d6000803e3d6000fd5b505050506040513d601f19601f820116820180604052508101906116a391906145cd565b506000549091506116c2906201000090046001600160a01b0316613bc3565b6001600160a01b031663265f003b8560016040518363ffffffff1660e01b81526004016116f09291906145fa565b6040805180830381865afa15801561170c573d6000803e3d6000fd5b505050506040513d601f19601f820116820180604052508101906117309190614627565b63ffffffff9081166101808601819052911661016085015260009061175890620f424061468d565b6040850183905290506000805b85515163ffffffff82161015611c4557600054611790906201000090046001600160a01b0316613aa0565b6001600160a01b031663160d8b2888836040518363ffffffff1660e01b81526004016117bd9291906146b0565b6040805180830381865afa1580156117d9573d6000803e3d6000fd5b505050506040513d601f19601f820116820180604052508101906117fd91906146cf565b8751805163ffffffff8516908110611817576118176146f3565b602002602001015160000188600001518463ffffffff168151811061183e5761183e6146f3565b6020908102919091018101510191909152528551805163ffffffff831690811061186a5761186a6146f3565b602002602001015160000151600014611c3357600054611898906201000090046001600160a01b0316613aa0565b6001600160a01b0316638a7d6ac688836040518363ffffffff1660e01b81526004016118c59291906146b0565b602060405180830381865afa1580156118e2573d6000803e3d6000fd5b505050506040513d601f19601f8201168201806040525081019061190691906144ea565b8651805163ffffffff8416908110611920576119206146f3565b602002602001015160400181815250506000806119648389600001518563ffffffff1681518110611953576119536146f3565b60200260200101516000015161279f565b9150915060008289600001518563ffffffff1681518110611987576119876146f3565b60200260200101516000015161199d9190614709565b90508189600001518563ffffffff16815181106119bc576119bc6146f3565b6020026020010151600001516119d29190614709565b896040018181516119e39190614739565b90525060008113611a2e57612710611a0c898663ffffffff1681518110610ad157610ad16146f3565b611a1583614761565b611a1f919061477d565b611a299190614794565b611a60565b612710611a4c898663ffffffff1681518110610ad157610ad16146f3565b611a56908361477d565b611a609190614794565b8961010001818151611a7291906147a8565b90525060008113611ace57612710888563ffffffff1681518110611a9857611a986146f3565b6020026020010151610120015163ffffffff1682611ab590614761565b611abf919061477d565b611ac99190614794565b611b11565b612710888563ffffffff1681518110611ae957611ae96146f3565b6020026020010151610120015163ffffffff1682611b07919061477d565b611b119190614794565b8961012001818151611b2391906147a8565b905250885180516402540be400919063ffffffff8716908110611b4857611b486146f3565b602002602001015160200151898663ffffffff1681518110611b6c57611b6c6146f3565b60200260200101516060015142611b8391906147bb565b8a8763ffffffff1681518110611b9b57611b9b6146f3565b602002602001015160200151611bb19190614709565b8a8763ffffffff1681518110611bc957611bc96146f3565b602002602001015160000151611bdf9190614739565b611be991906147ce565b8a51805163ffffffff8816908110611c0357611c036146f3565b602002602001015160000151611c199190614709565b611c2391906147f5565b611c2d9086614739565b94505050505b80611c3d81614823565b915050611765565b5060e08501819052604085018051829190611c619083906147ce565b905250600090508060015b8660200151518163ffffffff16101561201857600080548190611c9d906201000090046001600160a01b0316613aa0565b6040516318c261fd60e11b815263ffffffff851660048201526001600160a01b039190911690633184c3fa906024016040805180830381865afa158015611ce8573d6000803e3d6000fd5b505050506040513d601f19601f82011682018060405250810190611d0c9190614846565b90925090506001600160a01b038216611d26575050612006565b805160081c613fff1689602001518463ffffffff1681518110611d4b57611d4b6146f3565b602090810291909101015160600152805160161c613fff1689602001518463ffffffff1681518110611d7f57611d7f6146f3565b60209081029190910101516080015260008054611daa906201000090046001600160a01b0316613aa0565b6001600160a01b031663e51e119e8c856040518363ffffffff1660e01b8152600401611dd7929190614873565b602060405180830381865afa158015611df4573d6000803e3d6000fd5b505050506040513d601f19601f82011682018060405250810190611e1891906144ea565b825190915060321c601f16611e2e90600a614971565b611e3a9061271061477d565b8a602001518563ffffffff1681518110611e5657611e566146f3565b602002602001015160600151611e706102bc855160ff1690565b611e7a908461477d565b611e84919061477d565b611e93906402540be40061477d565b611e9d9190614794565b611ea790876147a8565b825190965060321c601f16611ebd90600a614971565b611ec99061271061477d565b8a602001518563ffffffff1681518110611ee557611ee56146f3565b602002602001015160800151611eff6102bc855160ff1690565b611f09908461477d565b611f13919061477d565b611f22906402540be40061477d565b611f2c9190614794565b611f3690866147a8565b825190955060321c601f16611f4c90600a614971565b611f5a6102bc845160ff1690565b611f64908361477d565b611f73906402540be40061477d565b611f7d9190614794565b8a60c001818151611f8e9190614739565b90525060208a0151805184919063ffffffff8716908110611fb157611fb16146f3565b6020026020010151600001906001600160a01b031690816001600160a01b031681525050808a602001518563ffffffff1681518110611ff257611ff26146f3565b602002602001015160200181815250505050505b8061201081614823565b915050611c6c565b508186604001516120299190614739565b6080870152604086015161203e908290614739565b60a0870152604086015160c087018051612059908390614739565b90525060015b8660200151518163ffffffff1610156122ab57866101000151876080015112156120b657600087602001518263ffffffff16815181106120a1576120a16146f3565b60200260200101516040018181525050612299565b6000805481906120d4906201000090046001600160a01b0316613aa0565b6040516318c261fd60e11b815263ffffffff851660048201526001600160a01b039190911690633184c3fa906024016040805180830381865afa15801561211f573d6000803e3d6000fd5b505050506040513d601f19601f820116820180604052508101906121439190614846565b90925090506001600160a01b03821661215d575050612299565b6000670de0b6b3a76400006127108b602001518663ffffffff1681518110612187576121876146f3565b6020026020010151606001516121a28763ffffffff16612e34565b6121ac919061477d565b6121b69190614794565b835160321c601f166121c990600a614971565b8c61010001518d608001516121de91906147bb565b6121e8919061477d565b6121f6906305f5e10061477d565b6122009190614794565b61220a9190614794565b905089602001518463ffffffff1681518110612228576122286146f3565b60200260200101516020015181116122405780612269565b89602001518463ffffffff168151811061225c5761225c6146f3565b6020026020010151602001515b8a602001518563ffffffff1681518110612285576122856146f3565b602002602001015160400181815250505050505b806122a381614823565b91505061205f565b50600082876101000151116122c15760006122d2565b828761010001516122d291906147bb565b905060008188604001516122e691906147ce565b12612300578087604001516122fb91906147bb565b612303565b60005b606088015250949695505050505050565b60008054612330906201000090046001600160a01b0316613a3c565b6001600160a01b031663fa5a2e626040518163ffffffff1660e01b8152600401602060405180830381865afa15801561033a573d6000803e3d6000fd5b6060816000816001600160401b0381111561238a5761238a614503565b6040519080825280602002602001820160405280156123b3578160200160208202803683370190505b5060008054919250620100009091046001600160a01b0316905b838163ffffffff1610156124e3576000806123f0846001600160a01b0316613c19565b6001600160a01b031663c14ffdb98a8a8663ffffffff16818110612416576124166146f3565b905060200201602081019061242b9190614283565b6040516001600160e01b031960e084901b16815263ffffffff919091166004820152602401606060405180830381865afa15801561246d573d6000803e3d6000fd5b505050506040513d601f19601f82011682018060405250810190612491919061497d565b5063ffffffff16915063ffffffff16915080821415858463ffffffff16815181106124be576124be6146f3565b91151560209283029190910190910152508190506124db81614823565b9150506123cd565b509095945050505050565b6124f6613ee8565b60408051602081019091526000815260408051602081019091526000815260005461252f906201000090046001600160a01b0316613aa0565b60405163ece91e3560e01b815263ffffffff861660048201526001600160a01b03919091169063ece91e3590602401608060405180830381865afa15801561257b573d6000803e3d6000fd5b505050506040513d601f19601f8201168201806040525081019061259f9190614568565b602087019290925291855290925090506125b882613ae0565b60408401526125c682613b13565b60808401526125d482613c59565b60c08401526125e282613c7d565b60a0840152815160411c63ffffffff16606084015261260082613ca1565b8360e001906003811115612616576126166142a0565b90816003811115612629576126296142a0565b905250905160bb1c613fff908116610100840152905116610120820152919050565b600054600190610100900460ff1615801561266d575060005460ff8083169116105b6126d55760405162461bcd60e51b815260206004820152602e60248201527f496e697469616c697a61626c653a20636f6e747261637420697320616c72656160448201526d191e481a5b9a5d1a585b1a5e995960921b60648201526084015b60405180910390fd5b6000805461ffff191660ff8316176101001790556001600160a01b03821661273f5760405162461bcd60e51b815260206004820152601b60248201527f4f627365727665722073686f756c642062652070726f7669646564000000000060448201526064016126cc565b60008054610100600160b01b031916620100006001600160a01b0385160261ff00191617905560405160ff821681527f7f26b83ff96e1f2b6a682f133852f6798a09c465da95921460cefb38474024989060200160405180910390a15050565b6000806127b86040518060200160405280600081525090565b6000546127d3906201000090046001600160a01b0316613aa0565b60405163ece91e3560e01b815263ffffffff871660048201526001600160a01b03919091169063ece91e3590602401608060405180830381865afa15801561281f573d6000803e3d6000fd5b505050506040513d601f19601f820116820180604052508101906128439190614568565b50600080549194509250612881915063ffffffff881690612872906201000090046001600160a01b0316613cc3565b6001600160a01b031690613d03565b9050600061288e83613ae0565b9050600061289b84613b13565b90506128a8838383613b37565b95506128b687848484613b72565b9450505050509250929050565b60008054606091906128e3906201000090046001600160a01b0316613aa0565b6001600160a01b03166395adc2f26040518163ffffffff1660e01b8152600401602060405180830381865afa158015612920573d6000803e3d6000fd5b505050506040513d601f19601f8201168201806040525081019061294491906145b0565b6000805491925090612964906201000090046001600160a01b0316613a3c565b6001600160a01b031663fa5a2e626040518163ffffffff1660e01b8152600401602060405180830381865afa1580156129a1573d6000803e3d6000fd5b505050506040513d601f19601f820116820180604052508101906129c591906144ea565b90508163ffffffff166001600160401b038111156129e5576129e5614503565b604051908082528060200260200182016040528015612a0e578160200160208202803683370190505b50925060015b8263ffffffff168163ffffffff161015612b125760008054612a44906201000090046001600160a01b0316613aa0565b60405163ece91e3560e01b815263ffffffff841660048201526001600160a01b03919091169063ece91e3590602401608060405180830381865afa158015612a90573d6000803e3d6000fd5b505050506040513d601f19601f82011682018060405250810190612ab49190614568565b509250505082612ac382613ae0565b612ad2906402540be400614709565b612adc91906147f5565b858363ffffffff1681518110612af457612af46146f3565b60209081029190910101525080612b0a81614823565b915050612a14565b50505090565b600080600080600080600080612b3a6040518060200160405280600081525090565b600054612b55906201000090046001600160a01b0316613c19565b6040516314a19a3160e21b815263ffffffff8d166004820152602481018c90526001600160a01b03919091169063528668c490604401606060405180830381865afa158015612ba8573d6000803e3d6000fd5b505050506040513d601f19601f82011682018060405250810190612bcc91906149ca565b919a50985090506000612bde82613d6f565b9050806000015181602001518260400151836060015184608001518560a00151809850819950829a50839b50849c50859d5050505050505050509295985092959890939650565b6060816000816001600160401b03811115612c4257612c42614503565b604051908082528060200260200182016040528015612c6b578160200160208202803683370190505b5060008054919250620100009091046001600160a01b0316905b838163ffffffff1610156124e357612cc787878363ffffffff16818110612cae57612cae6146f3565b90506020020135612872846001600160a01b0316613cc3565b838263ffffffff1681518110612cdf57612cdf6146f3565b602090810291909101015280612cf481614823565b915050612c85565b6000805460609190612d1c906201000090046001600160a01b0316613aa0565b6001600160a01b03166395adc2f26040518163ffffffff1660e01b8152600401602060405180830381865afa158015612d59573d6000803e3d6000fd5b505050506040513d601f19601f82011682018060405250810190612d7d91906145b0565b90508063ffffffff166001600160401b03811115612d9d57612d9d614503565b604051908082528060200260200182016040528015612dd657816020015b612dc3613ee8565b815260200190600190039081612dbb5790505b50915060005b8163ffffffff168163ffffffff161015612e2f57612df9816124ee565b838263ffffffff1681518110612e1157612e116146f3565b60200260200101819052508080612e2790614823565b915050612ddc565b505090565b600080546104d6908390612872906201000090046001600160a01b0316613cc3565b612ed9604080516101c08101909152600061018082018181526101a083019190915281908152602001606081526020016000815260200160008152602001600081526020016000815260200160008152602001600081526020016000815260200160008152602001600063ffffffff168152602001600063ffffffff1681525090565b43610120820152600054612efb906201000090046001600160a01b0316613a3c565b6001600160a01b0316630468674b6040518163ffffffff1660e01b8152600401602060405180830381865afa158015612f38573d6000803e3d6000fd5b505050506040513d601f19601f82011682018060405250810190612f5c91906145b0565b63ffffffff166001600160401b03811115612f7957612f79614503565b604051908082528060200260200182016040528015612fb257816020015b612f9f613eb0565b815260200190600190039081612f975790505b50602082015260008054612fd4906201000090046001600160a01b0316613a3c565b6001600160a01b0316635e5c06e2846040518263ffffffff1660e01b8152600401612fff91906143b3565b6040805180830381865afa15801561301b573d6000803e3d6000fd5b505050506040513d601f19601f8201168201806040525081019061303f91906145cd565b5060005490915061305e906201000090046001600160a01b0316613bc3565b6001600160a01b031663265f003b8460006040518363ffffffff1660e01b815260040161308c9291906145fa565b6040805180830381865afa1580156130a8573d6000803e3d6000fd5b505050506040513d601f19601f820116820180604052508101906130cc9190614627565b63ffffffff9081166101608501521661014083015260408201819052600054613103906201000090046001600160a01b0316613a3c565b6001600160a01b03166355f57510846040518263ffffffff1660e01b815260040161312e91906143b3565b602060405180830381865afa15801561314b573d6000803e3d6000fd5b505050506040513d601f19601f8201168201806040525081019061316f91906144ea565b82515260005461318d906201000090046001600160a01b0316613a3c565b6001600160a01b031663d19d30ad846040518263ffffffff1660e01b81526004016131b891906143b3565b602060405180830381865afa1580156131d5573d6000803e3d6000fd5b505050506040513d601f19601f820116820180604052508101906131f991906144ea565b8251602001526000805461321b906201000090046001600160a01b0316613a3c565b6001600160a01b03166378d9a46e6040518163ffffffff1660e01b8152600401602060405180830381865afa158015613258573d6000803e3d6000fd5b505050506040513d601f19601f8201168201806040525081019061327c91906144ea565b835151613289919061477d565b9050612710836101600151620f42406132a2919061468d565b6132b29063ffffffff168361477d565b6132bc9190614794565b60e084015260408051602081019091526000546127109161335c9181906132f1906201000090046001600160a01b0316613a3c565b6001600160a01b0316631c580ad56040518163ffffffff1660e01b8152600401602060405180830381865afa15801561332e573d6000803e3d6000fd5b505050506040513d601f19601f8201168201806040525081019061335291906144ea565b905251613fff1690565b61336c9063ffffffff168361477d565b6133769190614794565b610100840152604083018051829190613390908390614739565b90525060008060015b8560200151518163ffffffff161015613745576000805481906133ca906201000090046001600160a01b0316613a3c565b6040516318c261fd60e11b815263ffffffff851660048201526001600160a01b039190911690633184c3fa906024016040805180830381865afa158015613415573d6000803e3d6000fd5b505050506040513d601f19601f820116820180604052508101906134399190614846565b90925090506001600160a01b038216613453575050613733565b805160081c613fff1688602001518463ffffffff1681518110613478576134786146f3565b602090810291909101015160600152805160161c613fff1688602001518463ffffffff16815181106134ac576134ac6146f3565b602090810291909101015160800152600080546134d7906201000090046001600160a01b0316613a3c565b6001600160a01b031663e51e119e8b856040518363ffffffff1660e01b8152600401613504929190614873565b602060405180830381865afa158015613521573d6000803e3d6000fd5b505050506040513d601f19601f8201168201806040525081019061354591906144ea565b825190915060321c601f1661355b90600a614971565b6135679061271061477d565b89602001518563ffffffff1681518110613583576135836146f3565b60200260200101516060015161359d6102bc855160ff1690565b6135a7908461477d565b6135b1919061477d565b6135c0906402540be40061477d565b6135ca9190614794565b6135d490876147a8565b825190965060321c601f166135ea90600a614971565b6135f69061271061477d565b89602001518563ffffffff1681518110613612576136126146f3565b60200260200101516080015161362c6102bc855160ff1690565b613636908461477d565b613640919061477d565b61364f906402540be40061477d565b6136599190614794565b61366390866147a8565b825190955060321c601f1661367990600a614971565b6136876102bc845160ff1690565b613691908361477d565b6136a0906402540be40061477d565b6136aa9190614794565b8960c0018181516136bb9190614739565b9052506020890151805184919063ffffffff87169081106136de576136de6146f3565b6020026020010151600001906001600160a01b031690816001600160a01b0316815250508089602001518563ffffffff168151811061371f5761371f6146f3565b602002602001015160200181815250505050505b8061373d81614823565b915050613399565b508185604001516137569190614739565b6080860152604085015161376b908290614739565b60a0860152604085015160c086018051613786908390614739565b90525060015b8560200151518163ffffffff1610156139d6578560e00151866080015112156137e257600086602001518263ffffffff16815181106137cd576137cd6146f3565b602002602001015160400181815250506139c4565b600080548190613800906201000090046001600160a01b0316613a3c565b6040516318c261fd60e11b815263ffffffff851660048201526001600160a01b039190911690633184c3fa906024016040805180830381865afa15801561384b573d6000803e3d6000fd5b505050506040513d601f19601f8201168201806040525081019061386f9190614846565b90925090506001600160a01b0382166138895750506139c4565b6000670de0b6b3a76400006127108a602001518663ffffffff16815181106138b3576138b36146f3565b6020026020010151606001516138ce8763ffffffff16612e34565b6138d8919061477d565b6138e29190614794565b835160321c601f166138f590600a614971565b8b60e001518c6080015161390991906147bb565b613913919061477d565b613921906305f5e10061477d565b61392b9190614794565b6139359190614794565b905088602001518463ffffffff1681518110613953576139536146f3565b602002602001015160200151811161396b5780613994565b88602001518463ffffffff1681518110613987576139876146f3565b6020026020010151602001515b89602001518563ffffffff16815181106139b0576139b06146f3565b602002602001015160400181815250505050505b806139ce81614823565b91505061378c565b506000828660e00151116139eb5760006139fb565b828660e001516139fb91906147bb565b90506000818760400151613a0f91906147ce565b12613a2957808660400151613a2491906147bb565b613a2c565b60005b6060870152509395945050505050565b6000816001600160a01b031663b906f15a6040518163ffffffff1660e01b8152600401602060405180830381865afa158015613a7c573d6000803e3d6000fd5b505050506040513d601f19601f820116820180604052508101906104d69190614a0a565b6000816001600160a01b031663af8e64226040518163ffffffff1660e01b8152600401602060405180830381865afa158015613a7c573d6000803e3d6000fd5b80516000906001600160401b03811690600160401b168203613b0a57613b0581614761565b613b0c565b805b9392505050565b60006061633fffffff60611b836000015116901c6402540be4006104d6919061477d565b60008381606484613b488785614709565b613b5291906147f5565b613b5c91906147f5565b9050613b688183614739565b9695505050505050565b60008381606484613b8460028a6147f5565b613b8e90886147ce565b613b989085614709565b613ba291906147f5565b613bac91906147f5565b9050613bb88183614739565b979650505050505050565b6000816001600160a01b03166370fac6736040518163ffffffff1660e01b8152600401602060405180830381865afa158015613a7c573d6000803e3d6000fd5b6000818311613c125781613b0c565b5090919050565b6000816001600160a01b0316635e9658d26040518163ffffffff1660e01b8152600401602060405180830381865afa158015613a7c573d6000803e3d6000fd5b6000607f633fffffff607f1b836000015116901c6402540be4006104d6919061477d565b6000609d633fffffff609d1b836000015116901c6402540be4006104d6919061477d565b600060c9600360c91b836000015116901c60038111156104d6576104d66142a0565b6000816001600160a01b0316632630c12f6040518163ffffffff1660e01b8152600401602060405180830381865afa158015613a7c573d6000803e3d6000fd5b60405163f91d443f60e01b8152600481018290526000906001600160a01b0384169063f91d443f90602401602060405180830381865afa158015613d4b573d6000803e3d6000fd5b505050506040513d601f19601f82011682018060405250810190613b0c91906144ea565b6040805160e081018252600080825260208201819052918101829052606081018290526080810182905260a0810182905260c08101919091526040518060e00160405280613dc584516701ffffffffffffff1690565b8152835160391c663fffffffffffff90811660208301528451606f1c166040820152835160a51c60ff1660608201528351608090910190600160ad1b16151515158152602001613e1b8451600160ae1b16151590565b15158152602001613e328451600160cf1b16151590565b1515905292915050565b604051806101a001604052806060815260200160608152602001600081526020016000815260200160008152602001600081526020016000815260200160008152602001600081526020016000815260200160008152602001600063ffffffff168152602001600063ffffffff1681525090565b6040518060a0016040528060006001600160a01b03168152602001600081526020016000815260200160008152602001600081525090565b6040518061014001604052806000815260200160008152602001600081526020016000815260200160008152602001600081526020016000815260200160006003811115613f3857613f386142a0565b815260006020820181905260409091015290565b63ffffffff81168114613f5e57600080fd5b50565b600080600060608486031215613f7657600080fd5b8335613f8181613f4c565b95602085013595506040909401359392505050565b6001600160a01b0381168114613f5e57600080fd5b600060208284031215613fbd57600080fd5b8135613b0c81613f96565b60008083601f840112613fda57600080fd5b5081356001600160401b03811115613ff157600080fd5b6020830191508360208260051b850101111561400c57600080fd5b9250929050565b60008060006040848603121561402857600080fd5b833561403381613f96565b925060208401356001600160401b0381111561404e57600080fd5b61405a86828701613fc8565b9497909650939450505050565b600081518084526020808501945080840160005b838110156140ad578151805188528381015184890152604090810151908801526060909601959082019060010161407b565b509495945050505050565b600081518084526020808501945080840160005b838110156140ad57815180516001600160a01b03168852838101518489015260408082015190890152606080820151908901526080908101519088015260a090960195908201906001016140cc565b60208152600082516101a080602085015261413a6101c0850183614067565b91506020850151601f1985840301604086015261415783826140b8565b9250506040850151606085015260608501516080850152608085015160a085015260a085015160c085015260c085015160e085015260e08501516101008181870152808701519150506101208181870152808701519150506101408181870152808701519150506101608181870152808701519150506101806141e18187018363ffffffff169052565b86015163ffffffff81168387015290505b5090949350505050565b6000806020838503121561420f57600080fd5b82356001600160401b0381111561422557600080fd5b61423185828601613fc8565b90969095509350505050565b6020808252825182820181905260009190848201906040850190845b81811015614277578351151583529284019291840191600101614259565b50909695505050505050565b60006020828403121561429557600080fd5b8135613b0c81613f4c565b634e487b7160e01b600052602160045260246000fd5b600481106142c6576142c66142a0565b9052565b805182526020810151602083015260408101516040830152606081015160608301526080810151608083015260a081015160a083015260c081015160c083015260e081015161431c60e08401826142b6565b506101008181015163ffffffff908116918401919091526101209182015116910152565b61014081016104d682846142ca565b6000806040838503121561436257600080fd5b823561436d81613f4c565b946020939093013593505050565b6020808252825182820181905260009190848201906040850190845b8181101561427757835183529284019291840191600101614397565b6001600160a01b0391909116815260200190565b6020808252825182820181905260009190848201906040850190845b81811015614277576143f68385516142ca565b9284019261014092909201916001016143e3565b60006020828403121561441c57600080fd5b5035919050565b6020808252825180518383015201516040820152600060208301516101a08060608501526144556101c08501836140b8565b915060408501516080850152606085015160a0850152608085015160c085015260a085015160e085015260c0850151610100818187015260e087015191506101208281880152818801519250610140915082828801528088015192505061016082818801528188015192506144d361018088018463ffffffff169052565b87015163ffffffff81168488015291506141f29050565b6000602082840312156144fc57600080fd5b5051919050565b634e487b7160e01b600052604160045260246000fd5b60006020828403121561452b57600080fd5b604051602081018181106001600160401b038211171561455b57634e487b7160e01b600052604160045260246000fd5b6040529151825250919050565b6000806000806080858703121561457e57600080fd5b84519350602085015192506145968660408701614519565b91506145a58660608701614519565b905092959194509250565b6000602082840312156145c257600080fd5b8151613b0c81613f4c565b600080604083850312156145e057600080fd5b825191506145f18460208501614519565b90509250929050565b6001600160a01b0383168152604081016002831061461a5761461a6142a0565b8260208301529392505050565b6000806040838503121561463a57600080fd5b825161464581613f4c565b602084015190925061465681613f4c565b809150509250929050565b634e487b7160e01b600052601260045260246000fd5b634e487b7160e01b600052601160045260246000fd5b600063ffffffff808416806146a4576146a4614661565b92169190910492915050565b6001600160a01b0392909216825263ffffffff16602082015260400190565b600080604083850312156146e257600080fd5b505080516020909101519092909150565b634e487b7160e01b600052603260045260246000fd5b80820260008212600160ff1b8414161561472557614725614677565b81810583148215176104d6576104d6614677565b808201828112600083128015821682158216171561475957614759614677565b505092915050565b6000600160ff1b820161477657614776614677565b5060000390565b80820281158282048414176104d6576104d6614677565b6000826147a3576147a3614661565b500490565b808201808211156104d6576104d6614677565b818103818111156104d6576104d6614677565b81810360008312801583831316838312821617156147ee576147ee614677565b5092915050565b60008261480457614804614661565b600160ff1b82146000198414161561481e5761481e614677565b500590565b600063ffffffff80831681810361483c5761483c614677565b6001019392505050565b6000806040838503121561485957600080fd5b825161486481613f96565b91506145f18460208501614519565b6001600160a01b0392831681529116602082015260400190565b600181815b808511156148c85781600019048211156148ae576148ae614677565b808516156148bb57918102915b93841c9390800290614892565b509250929050565b6000826148df575060016104d6565b816148ec575060006104d6565b8160018114614902576002811461490c57614928565b60019150506104d6565b60ff84111561491d5761491d614677565b50506001821b6104d6565b5060208310610133831016604e8410600b841016171561494b575081810a6104d6565b614955838361488d565b806000190482111561496957614969614677565b029392505050565b6000613b0c83836148d0565b60008060006060848603121561499257600080fd5b835161499d81613f4c565b60208501519093506149ae81613f4c565b60408501519092506149bf81613f4c565b809150509250925092565b6000806000606084860312156149df57600080fd5b83516149ea81613f96565b60208501519093509150614a018560408601614519565b90509250925092565b600060208284031215614a1c57600080fd5b8151613b0c81613f9656fea264697066735822122022a297c1fb61dec4a95fb038ebf4ed673c6c4e2aa87481e521d55adcdb620bf264736f6c63430008130033",
  "linkReferences": {},
  "deployedLinkReferences": {}
}